:1000000012C024C023C022C021C020C01FC01EC0F7
:100010001DC01CC01BC01AC019C018C017C016C014
:1000200015C014C013C011241FBECFE5D4E0DEBF3D
:10003000CDBF10E0A0E6B0E0EAE9F1E002C0059033
:100040000D92A037B107D9F702D0A5C0D9CFCF9371
:10005000DF9300D000D01F92CDB7DEB787B38760A3
:1000600087BB10BC82E689B988E18AB986E880BD81
:10007000789410E080E0EE24E394F12C5F9BFECFB7
:100080009CB1282F30E09A3009F04BC041E050E09D
:100090004C0F5D1F240F351FF901108260E670E0E0
:1000A000CA0170D0892B09F467C064E670E0CE0104
:1000B000019668D0892B09F461C089E6882E80E01A
:1000C000982E9CE6A92E90E0B92ED12CC12CB4011B
:1000D000CE01019657D0892B41F4C70101C0880F8A
:1000E000CA94EAF7182B80E025C0B501CE0101962D
:1000F00049D0892B41F4C70101C0880FCA94EAF79F
:1001000080951823F0CFFFEFCF1ADF0A4FEF841A44
:10011000940A5FEFA51AB50A88E0C816D104B9F6AB
:10012000E2CF8F5FE1E0F0E0EC0FFD1F2E0F3F1FED
:10013000F901908327E030E0412F50E0BA01022E10
:1001400002C0759567950A94E2F760FF19C0C09ADE
:10015000C19AEFE9FFE03197F1F700C00000C198C4
:100160002150310958F7C29AEFE9FFE03197F1F7D2
:1001700000C00000C29882CF1FEFB5CF10E0B3CF10
:10018000C098E6CFFB01DC018D9101908019011030
:0A019000D9F3990B0895F894FFCFFE
:10019A004F4E58004F464658004F4E004F464600B5
:00000001FF
